:020000040000FA
:060000000A128A110E280D
:10000800FE00030EF7000408F8000A08F9000A16B3
:100018008A11C22F0A128A1111288317E830FD00AD
:100028001430FE005830FF00D23084000A168A11BE
:100038007F230A128A111B30FD001330FE004F3057
:10004800FF00103084000A168A117F230A128A11D1
:100058008313C430FD001630FE001830FF00A030B6
:1000680084000A168A117F230A128A118317903096
:100078008400D2300A168A1132230A128A11831395
:10008800C4308400DF300A168A113223FA01FB01DA
:10009800FC01FD0183010A168A11B92E831203138C
:1000A800AB01831603135C080A3E83120313A400F2
:1000B800240883160313DC0014305C06031D0800B3
:1000C800DC0183120313AC01AB010B30A40024083C
:1000D800A0002C080A168A119E230A128A11963E3D
:1000E800831203132B07A500250884008317000833
:1000F800A6000B30A7002708A0002C080A168A11B2
:100108009E230A128A11953E831203132B07A80017
:10011800280884002608831780000130A4002408DA
:10012800AB072B08031969280B30A4002408A0008A
:100138002C080A168A119E230A128A11923E8400FC
:100148008317000883120313A500840A0008A60079
:10015800250884008317261C83130008A7000B308A
:10016800A8002808A0002C080A168A119E230A1243
:100178008A11943E84008317000A83120313C62849
:100188000310A70CFF3E031DC42827080139A90046
:100198000B30AA002A08A0002C080A168A119E23F0
:1001A8000A128A11963E84008312031329088317C2
:1001B80080000B30A4002408A0002C080A168A111D
:1001C8009E230A128A11973E840083170008031D94
:1001D80023290B3083120313A4002408A0002C0841
:1001E8000A168A119E230A128A11953E84008317E3
:1001F8000008031D23290B3083120313A4002408CD
:10020800A0002C080A168A119E230A128A11963E0B
:10021800840083170008031D23290B30831203135E
:10022800A4002408A0002C080A168A119E230A128A
:100238008A11973E840083178001800A8B2A0B302D
:1002480083120313A4002408A0002C080A168A119C
:100258009E230A128A11973E840083170003031D08
:100268005D290B3083120313A4002408A0002C0876
:100278000A168A119E230A128A11963E8400831751
:100288000008031D5D29023083120313A4000B30FC
:10029800A5002508A0002C080A168A119E230A1218
:1002A8008A11973E84008312031324088317800061
:1002B8008B2A0B3083120313A4002408A0002C08F7
:1002C8000A168A119E230A128A11973E8400023068
:1002D80083170006031DEC290B3083120313A400B7
:1002E8002408A0002C080A168A119E230A128A11D3
:1002F800963E840083170008031DEC290B308312F7
:100308000313A4002408A0002C080A168A119E23AF
:100318000A128A11983E8400143083178007840AD1
:100328000318800A0B3083120313A4002408A000CA
:100338002C080A168A119E230A128A11983E8400F4
:100348008317000883120313A500840A0008A60077
:10035800E8302506033003192606031D8B2A0B30C7
:10036800A4002408A0002C080A168A119E230A1249
:100378008A11983E840083178001840A80010B301B
:1003880083120313A4002408A0002C080A168A115B
:100398009E230A128A119A3E84003C308317000279
:1003A80003188B2A013083120313A4000B30A50015
:1003B8002508A0002C080A168A119E230A128A1101
:1003C8009A3E8400831203132408831780078B2A1C
:1003D8000B3083120313A4002408A0002C080A166B
:1003E8008A119E230A128A11973E840002308317CD
:1003F8000006031D562A0B3083120313A400240899
:10040800A0002C080A168A119E230A128A11953E0A
:10041800840083170003031D562A0B30831203132D
:10042800A4002408A0002C080A168A119E230A1288
:100438008A11963E840083170003031D562A033051
:1004480083120313A4000B30A5002508A0002C0874
:100458000A168A119E230A128A11973E8400831273
:1004680003132408831780000B30A4002408A0007D
:100478002C080A168A119E230A128A11983E8400B3
:1004880083178001840A80010B3083120313A400B0
:100498002408A0002C080A168A119E230A128A1121
:1004A8009A3E882A0B3083120313A4002408A00064
:1004B8002C080A168A119E230A128A11973E840074
:1004C800033083170006031D8B2A0B308312031396
:1004D800A4002408A0002C080A168A119E230A12D8
:1004E8008A11963E840083170003031D8B2A0B3064
:1004F80083120313A4002408A0002C080A168A11EA
:100508009E230A128A11973E8400831780010130C6
:1005180083120313A4002408AC0703302C02031829
:10052800080068288312031323088039A8002808C4
:10053800B0002308A8002807A9002908B200A21BB8
:10054800321432080319B62A320A031DB32A0030BE
:10055800A3000030A2000030A1000030A000A217C4
:10056800A301BE2A0030A3000030A2000030A10081
:100578000030A00027088039A8002808B1003108F9
:100588003006031D30172708A8002807A9002908E6
:10059800B100A61B311431080319E02A310A031DE2
:1005A800DD2A0030A7000030A6000030A50000308A
:1005B800A400A617A701E82A0030A7000030A6006B
:1005C8000030A5000030A4003208310203182E2B99
:1005D800301FF22A8030A8002808B0063208A80088
:1005E8002808B3003108A8002808B2003308A8007A
:1005F8002808B1002008A8002808B3002408A8008B
:100608002808A0003308A8002808A4002108A8008A
:100618002808B3002508A8002808A1003308A80066
:100628002808A5002208A8002808B3002608A80062
:100638002808A2003308A8002808A6002308A80054
:100648002808B3002708A8002808A3003308A80032
:100658002808A700B3013108A800A9012908AB00A0
:1006680032082802AA00031CAB032B08803AFF00BB
:1006780080307F02031D422B1A302A02031C7B2B79
:1006880083120313230822042104200403194E2B88
:1006980001304F2B0030A8002808B3000030A30019
:1006A8000030A2000030A1000030A0003108A800EE
:1006B8002808B200812B331C6A2B3308A8000310CA
:1006C800280C0138A9002908B3006C2B0310B30CBF
:1006D8002018B3170130A800230DA30CA20CA10CFD
:1006E800A00CA80B702B0130A8002808B2078312B1
:1006F800031331083202031C5F2B301BC22B320854
:10070800031D8F2B0030A3000030A2000030A10091
:100718000030A00008002408A007250803110318CA
:10072800013E031DA107260803110318013E031DFE
:10073800A207270803110318013E031DA307231C62
:10074800642C331CB02B3308A8000310280C013884
:10075800A9002908B300B22B0310B30C2018B31753
:100768000130A800230DA30CA20CA10CA00CA80B0F
:10077800B62B0130A8002808B207642C2308803A59
:10078800FF002708803A7F02031DD42B2608220287
:10079800031DD42B25082102031DD42B2408200275
:1007A80003182C2CFF30A800FF30A900FF30AA0046
:1007B800FF30AB002408AC002508AD002608AE00C9
:1007C8002708AF002008AC022108031C210FED2BDD
:1007D800EE2BAD022208031C220FF32BF42BAE02E2
:1007E8002308031C230FF92BFA2BAF022C08A807A8
:1007F8002D0803182D0F012C022CA9072E08031809
:100808002E0F072C082CAA072F0803182F0AAB074E
:100818002B08A3002A08A2002908A1002808A00084
:100828008030A8002808B006B309B30A3308031DAE
:100838003A2C0130A007003003180130A10700301E
:1008480003180130A207003003180130A3073A2C1F
:100858002408A0022508031C250FA1022608031C52
:10086800260FA2022708031C270FA302230822042D
:1008780021042004031D622C3308031D622C003060
:10088800A3000030A2000030A1000030A000080042
:100898000130A8000310A00DA10DA20DA30DA80BF7
:1008A8004E2CB31B2014331C5B2C03145C2C03103C
:1008B800B30D32080319622C0130B202A21F4C2C6E
:1008C800B101B31F6F2C33087F39031920186D2C21
:1008D8006F2CB101B10A31080319A22C0130A0070D
:1008E800003003180130A107003003180130A207B7
:1008F800003003180130A307231CA22C2008A800ED
:100908002108A9002208AA002308AB000130AC0086
:100918002B0DAB0CAA0CA90CA80CAC0B8C2C2B081F
:10092800A3002A08A2002908A1002808A000320A6A
:100938000319A22C0130A8002808B207320A031DA7
:100948003208031DB22C0030A3000030A200003092
:10095800A1000030A00032080319B001321CB62CE7
:10096800A217BA2C7F30A8002808A2053208A800D0
:100978000310280CA9002908A300B01F0800A3171A
:1009880008008312031335088039B6003608BF0003
:100998003508B6003607B7003708C600B41B46143A
:1009A80046080319E52C460A031DE22C0030B50061
:1009B8000030B4000030B3000030B200B417B50105
:1009C800ED2C0030B5000030B4000030B30000302A
:1009D800B20031088039B6003608BF063108B600C3
:1009E8003607B7003708C700B01B47144708031974
:1009F8000B2D470A031D082D0030B1000030B00050
:100A08000030AF000030AE00B017B101132D003038
:100A1800B1000030B0000030AF000030AE00310847
:100A280030042F042E04031D322D0030B500003091
:100A3800B4000030B3000030B2008030B4047F301E
:100A4800B5043F08B6003608B5043508B1003408C7
:100A5800B0003308AF003208AE0008004608031D96
:100A68003E2D0030B1000030B0000030AF00003043
:100A7800AE0008004608B600B7013708B9004708B5
:100A88003602B800031CB90338087F3EC000390895
:100A98000318013E003EC1003508BE003408BD0001
:100AA8003308BC003208BB000030B5000030B40089
:100AB8000030B3000030B2000030C5000030C40080
:100AC8000030C3000030C200C7011A3047020318C3
:100AD800B12D470803198D2D0130B6000310BB0D49
:100AE800BC0DBD0DBE0DB60B722D0130B600031046
:100AF800B20DB30DB40DB50DB60B7B2DC51B32145D
:100B08000130B6000310C20DC30DC40DC50DB60BE0
:100B1800862D31083E02031D9B2D30083D02031D22
:100B28009B2D2F083C02031D9B2D2E083B02031C06
:100B3800AC2D45172E08BB022F08031C2F0FBC0233
:100B48003008031C300FBD023108031C310FBE02F0
:100B58000130B6003608C707692D3E083D043C043D
:100B68003B04031D4214B41BD42D0130B6000310FE
:100B7800B20DB30DB40DB50DB60BBB2DC51B32149C
:100B88000130B6000310C20DC30DC40DC50DB60B60
:100B9800C62DFF30C0070318C10AFF30C107B72DA3
:100BA800C701C51FED2DFF304205B600FF304305D4
:100BB800B700FF304405B8007F304505B900390853
:100BC80038043704360403193218EB2DED2DC7010C
:100BD800C70A470803191F2E0130B207003003184F
:100BE8000130B307003003180130B4070030031890
:100BF8000130B507351C1F2E3208B6003308B70080
:100C08003408B8003508B9000130BA00390DB90CFC
:100C1800B80CB70CB60CBA0B0A2E3908B500380850
:100C2800B4003708B3003608B2000130C007031813
:100C3800C10A0030C1074108803AFF0080307F02B6
:100C4800031D282EFF304002031C382EFF3083126C
:100C58000313C0000030C1000030B5000030B400FC
:100C68000030B3000030B200831203134108803A09
:100C7800FF0080307F02031D432E0130400203181D
:100C8800522E83120313C001C1010030B500003099
:100C9800B4000030B3000030B200BF018312031368
:100CA8004008B6003608C600461C5C2EB417602EF5
:100CB8007F30B6003608B4054608B6000310360C77
:100CC800B7003708B500252D83120313D3000A1285
:100CD8008A1534250A128A110B3083120313C500B2
:100CE8004508A00053080A168A119E230A128A1181
:100CF800B13E84008317000883120313C600840AD8
:100D08000008C700460884008317471C8313800126
:100D1800A40153080A168A1176250A128A1100308E
:100D280083120313C5000B30C6004608A000530801
:100D38000A168A119E230A128A11B93E8400831763
:100D4800000A83120313AA2E0310C50DFF3E031DCC
:100D5800A82E0B30C7004708A00053080A168A11AE
:100D68009E230A128A11B53E840083170008831255
:100D78000313C800840A0008C900480884008317C0
:100D8800491C83130008CA000130CB000B30CC008B
:100D98004C08A00053080A168A119E230A128A11C9
:100DA800B93E84008317000A83120313DD2E031053
:100DB800CB0DFF3E031DDB2E4B08FF3A4A054504C9
:100DC800CD000B30CE004E08A00053080A168A1139
:100DD8009E230A128A11B53E8400831700088312E5
:100DE8000313CF00840A0008D0004F08840083173B
:100DF800501C83134D0880000030C5000B30C6001E
:100E08004608A00053080A168A119E230A128A115E
:100E1800B93E84008317000A83120313152F0310A9
:100E2800C50DFF3E031D132F0B30C7004708A00058
:100E380053080A168A119E230A128A11B73E8400A3
:100E48008317000883120313C800840A0008C90026
:100E5800480884008317491C83130008CA0001301E
:100E6800CB000B30CC004C08A00053080A168A119E
:100E78009E230A128A11B93E84008317000A83123E
:100E88000313482F0310CB0DFF3E031D462F4B08BD
:100E9800FF3A4A054504CD000B30CE004E08A000AD
:100EA80053080A168A119E23B73E84008317000848
:100EB80083120313CF00840A0008D0004F0884006F
:100EC8008317501C83134D08800008000A308312D2
:100ED8000313B400340883160313DA0714305A06D0
:100EE800031D0800DA017D300A168A113A230A1216
:100EF8008A11033083120313B4003408A0007D085C
:100F08000A168A119E230A128A11AB3E84008313A3
:100F1800000883120313B5003508B7003708B4007A
:100F28003408A40000300A168A1101240A128A1112
:100F3800033083120313B4003408A0007D080A1696
:100F48008A119E230A128A11AC3E8400831300087A
:100F580083120313B5003508B7003708B400340806
:100F6800A40001300A168A1101240A128A110330DA
:100F780083120313B4003408A0007D080A168A11EE
:100F88009E230A128A11AD3E84008313000883123F
:100F98000313B5003508B7003708B4003408A400B7
:100FA80002300A168A1101240A128A1102300A161E
:100FB8008A1116240A128A11023A031DE52F0130FC
:100FC800E62F003083120313B4003408B600360845
:100FD800B4003408A40000300A168A11EC230A125F
:100FE8008A110A168A1195250800FB01FB0A0800D8
:1010000083120313A401A501201C0C282208A407A5
:101010000318A50A2308A50701300310A20DA30D8C
:10102000FF3E031D0D2801300310A10CA00CFF3E54
:10103000031D142820082104031D04282508A100ED
:101040002408A00008000A3083120313A90029080D
:1010500083160313DB0714305B06031D0800DB0156
:1010600083120313AB014F280A168A1142240A1275
:101070008A1545280A168A112C240A128A15452831
:101080000A168A114D270A128A150130831203139A
:10109000A9002908AB0703302B02031863282B088B
:1010A000A900AA012A08003A031957284528290847
:1010B000003A03193428013A03193A28033A03196C
:1010C0004028452845287B080A168A118C230800E9
:1010D0000030831203132005A80000302105A90069
:1010E00080302205AA007F302305AB002B082A049C
:1010F00029042804031D84280030A3000030A20026
:101100000030A1000030A00000302405A80000300D
:101110002505A90080302605AA007F302705AB00F1
:101120002B082A0429042804031D9E280030A70048
:101130000030A6000030A5000030A40027082306D8
:10114000031DAC2826082206031DAC28250821060D
:10115000031DAC28240820060319B028031008003A
:1011600003140800831203132F08A3002E08A20003
:101170002D08A1002C08A0000030A7000030A60018
:101180000030A5000030A4000A128A1568200A1257
:101190008A15031CD4288312031330088400831398
:1011A0008001840A80010800831203132F087F390D
:1011B000B100B2010310B10DB20D30088400310846
:1011C00083138000840A320880002E0D2E0D013911
:1011D000B100B2013008840031088004840A32086A
:1011E00080043008840082308007840F00080318D0
:1011F000000AFF00FF307F07800084032F0880393A
:101200003F38AF00AE130800831203135608AF0037
:101210005508AE005408AD005308AC005C30D70050
:101220005708B0000A128A15B2200A128A158312D2
:101230000313DD1F24290030D6000030D500003014
:10124000D4000030D300080000305D021D300319C7
:101250005C02031808005608CB005508CA00540861
:10126000C9005308C8000A128A1578220A128A1582
:10127000831203134B08A3004A08A2004908A100E7
:101280004808A00001300A128A15BC2583120313F6
:101290002308DB002208DA002108D9002008D80042
:1012A0005B08D6005A08D5005908D4005808D30066
:1012B000080083120313A4006F2910080F396B294B
:1012C00010080F3910386B2910080F3920386B2996
:1012D00010080F393038A20022089000892924080C
:1012E000A200A3012308003A0319772989292208BB
:1012F000003A03195D29013A03196029033A0319D9
:101300006429013A0319682989299010A3299014A6
:10131000A3292008A200A3012308003A0319912958
:10132000A3292208003A03198529013A03198729BC
:10133000A3298B170B17831603130C1408008316AD
:1013400003130C1008002108A200A3012308003A8F
:101350000319AB29B3292208003A03199929013A44
:1013600003199F29B32908000A3083120313B1001F
:10137000310883160313DD070A305D06031D0800DC
:10138000DD0183120313B501B50135080A128A1570
:10139000E5220A128A15013083120313B1003108C5
:1013A000B50703303502031CC5290B30B1003108E5
:1013B000A0007C080A168A119E230A128A15BA3EDA
:1013C00084008317000883120313B2003208B400AC
:1013D0003408B1003108A4007C080A168A11762569
:1013E0000A128A157C080A128A1552230A128A15D3
:1013F000013083120313B1003108FC070330A00051
:101400000030A1007C08B100B2013108A20032080E
:10141000A3000A168A111927831203132008B300A8
:101420003308FC000800831203136908D60068081B
:10143000D5006708D4006608D3000A128A15042173
:101440000A128A15831203135608E1005508E000BA
:101450005408DF005308DE006908E5006808E4006E
:101460006708E3006608E2000A168A11D3250A120B
:101470008A15831203136108ED006008EC005F0811
:10148000EB005E08EA006D08A3006C08A2006B0880
:10149000A1006A08A0006908A7006808A6006708FC
:1014A000A5006608A4000A128A1196220A128A155B
:1014B000831203132308E9002208E8002108E7004B
:1014C0002008E6006908D6006808D5006708D4003F
:1014D0006608D3000A128A150421831203135608E2
:1014E000E9005508E8005408E7005308E600080042
:1014F0000310831203134A0D4B0DCC004C08D2008D
:101500005208031D8C2A0030CB000030CA00003086
:10151000C9000030C80008004808CC004908CD00C8
:101520004A08CE004B08CF001F300310CF0CCE0C62
:10153000CD0CCC0CFF3E031D952A4C08D000500862
:10154000D100CA17FF30C805FF30C905FF30CA05F2
:101550000030CB059630D202D21FC32A5208803AFF
:10156000973E031C832A01300310CB0CCA0CC90C14
:10157000C80CFF3E031DB42A0130CC004C08D20732
:101580000319D62AB32A203052020318832A52089C
:101590000319D62A0130CC000310C80DC90DCA0D9D
:1015A000CB0DCC0BCC2A0130D202C72A510803192B
:1015B0000800C809C909CA09CB09C80A0319C90A18
:1015C0000319CA0A0319CB0A080083120313B000D7
:1015D0000030A4000B30A5002508A00030080A1632
:1015E0008A119E230A128A15B93E84008317000AC5
:1015F00083120313FD2A0310A40DFF3E031DFB2AD3
:101600000B30A6002608A00030080A168A119E2377
:101610000A128A15B73E8400831700088312031349
:10162000A700840A0008A800270884008317281C44
:1016300083130008A9000130AA000B30AB002B086F
:10164000A00030080A168A119E230A128A15B93E94
:1016500084008317000A83120313302B0310AA0D92
:10166000FF3E031D2E2B2A08FF3A29052404AC0057
:101670000B30AD002D08A00030080A168A119E23F9
:10168000B73E84008317000883120313AE00840A58
:101690000008AF002E08840083172F1C83132C082A
:1016A0008000080083120313B0000130A4000B3047
:1016B000A5002508A00030080A168A119E230A12E8
:1016C0008A15B93E84008317000A831203136A2B1C
:1016D0000310A40DFF3E031D682B0B30A600260847
:1016E000A00030080A168A119E230A128A15B73EF6
:1016F00084008317000883120313A700840A0008DC
:10170000A800270884008317281C83130008A90059
:101710000130AA000B30AB002B08A00030080A16DD
:101720008A119E230A128A15B93E84008317000A83
:10173000831203139D2B0310AA0DFF3E031D9B2B49
:101740002A08FF3A29052404AC000B30AD002D080F
:10175000A00030080A168A119E23B73E8400831722
:10176000000883120313AE00840A0008AF002E089D
:10177000840083172F1C83132C0880000800831219
:101780000313BE000A168A118D260A128A1500302C
:1017900083120313B2000630B3003308A0003E08E2
:1017A0000A168A119E230A128A15C83E84008313E2
:1017B000000A83120313DE2B0310B20DFF3E031D3C
:1017C000DC2B0630B4003408A0003E080A168A114B
:1017D0009E230A128A15C43E8400831300088312D4
:1017E0000313B500840A0008B60035088400831787
:1017F000361C83130008B7000130B8000630B9006A
:101800003908A0003E080A168A119E230A128A157A
:10181000C83E84008313000A83120313112C0310A3
:10182000B80DFF3E031D0F2C3808FF3A3705320470
:10183000BA000630BB003B08A0003E080A168A1119
:101840009E230A128A15C43E840083130008831263
:101850000313BC00840A0008BD003C088400831701
:101860003D1C83133A0880003E080A128A15392469
:10187000080083120313B1000630A4002408A0005E
:1018800031080A168A119E230A128A15C93E84005D
:101890008313000883120313A5000630A600260850
:1018A000A00031080A168A119E230A128A15C83E22
:1018B00084008313000A83120313602C0310A50D08
:1018C000FF3E031D5E2C0630A7002708A00031084C
:1018D0000A168A119E230A128A15C63E84008313B3
:1018E000000883120313A800840A0008A90028082E
:1018F00084008317291C83130008AA000130AB0061
:101900000630AC002C08A00031080A168A119E236C
:101910000A128A15C83E84008313000A8312031337
:10192000932C0310AB0DFF3E031D912C2B08FF3AA7
:101930002A052504AD000630AE002E08A0003108AF
:101940000A168A119E23C63E840083130008831260
:101950000313AF00840A0008B0002F088400831727
:10196000301C83132D088000080083120313A2008B
:10197000112D831603138111011081100111023002
:10198000D4000030D5000800831603138111011420
:10199000811001110430D4000030D50008008316F6
:1019A000031381110110811401110830D40000309B
:1019B000D50008008316031381110114811401114D
:1019C0001030D4000030D5000800831603138111B5
:1019D0000110811001152030D4000030D50008001E
:1019E0008316031381110114811001154030D400B6
:1019F0000030D500080083160313811101108114F3
:101A000001158030D4000030D50008008316031380
:101A100081110114811401150030D4000130D5006A
:101A200008002208A000A1012108003A0319192D7D
:101A3000332D2008003A0319B92C013A0319C42C9C
:101A4000033A0319CF2C013A0319DA2C073A031988
:101A5000E52C013A0319F02C033A0319FB2C013A47
:101A60000319062D332D080024308400A030831282
:101A70000313A0000408A1000B30A200200884007A
:101A800083130008A300A00A210884002308800013
:101A9000A10AA20B3E2DB13084002430A00004081E
:101AA000A1000B30A2002008840083130008A300CB
:101AB000A00A21088400831723088000A10AA20B32
:101AC000532D2F308400DD30A0000408A1000B301E
:101AD000A2002008840083170008A300A00A2108A0
:101AE0008400831323088000A10AA20B692D0B3008
:101AF000B13E84002F30A0000408A1000B30A200EA
:101B00002008840083130008A300A00A2108840091
:101B1000230883178000A10AA20B802D3A3084008D
:101B2000D230A0000408A1000B30A20020088400DD
:101B300083170008A300A00A210884008313230848
:101B40008000A10AA20B962D1630B13E84003A30D7
:101B5000A0000408A1000B30A20020088400831319
:101B60000008A300A00A210884002308831780002E
:101B7000A10AA20BAD2D080083120313A8002808A8
:101B8000031DA31FD32D2009AA002109AB002209A0
:101B9000AC002309AD00AA0A0319AB0A0319AC0A69
:101BA0000319AD0ADB2D2308AD002208AC00210883
:101BB000AB002008AA002308220421042004031DEE
:101BC000EA2D0030A3000030A2000030A100003058
:101BD000A00008009630A4002408A900FE302D05BE
:101BE00003191B2E0130A4002408A907013003109B
:101BF000AD0CAC0CAB0CAA0CFF3E031DF72DEE2D6B
:101C00000130A4002408A9070130AA0700300318F6
:101C10000130AB07003003180130AC070030031867
:101C20000130AD0701300310AD0CAC0CAB0CAA0CAD
:101C3000FF3E031D132EFF302D0503192F2E002EFE
:101C400002302902031C312E0130A9020130A40008
:101C50000310AA0DAB0DAC0DAD0DA40B282EAC1FBF
:101C6000202E29183B2EFF30AA05FF30AB057F3010
:101C7000AC05FF30AD050310A90C2908A400A5018F
:101C8000A601A70118300310A40DA50DA60DA70DE0
:101C9000FF3E031D432E2408AA042508AB04260892
:101CA000AC042708AD042808031DA31F582EAD1748
:101CB0002D08A3002C08A2002B08A1002A08A000D0
:101CC000080083120313B1000A168A113C260A1277
:101CD0008A15013083120313A4000B30A5002508D8
:101CE000A00031080A168A119E230A128A15943E12
:101CF00084008317000A83120313802E0310A40D9F
:101D0000FF3E031D7E2E0B30A6002608A0003108E2
:101D10000A168A119E230A128A15903E84008317A0
:101D2000000883120313A700840A0008A8002708EC
:101D300084008317281C83130008A9000130AA001F
:101D40000B30AB002B08A00031080A168A119E2325
:101D50000A128A15943E84008317000A8312031323
:101D6000B32E0310AA0DFF3E031DB12E2A08FF3A21
:101D700029052404AC000B30AD002D08A00031086B
:101D80000A168A119E230A128A15903E8400831730
:101D9000000883120313AE00840A0008AF002E0867
:101DA000840083172F1C83132C088000B0010B3094
:101DB000A4002408A00031080A168A119E230A12E2
:101DC0008A15953E831203133007A5002508840069
:101DD00083178001800A0130A4002408B007023074
:101DE0003002031CD72E0B30A4002408A0003108B9
:101DF0000A168A119E230A128A15973E84008317B9
:101E000080010B3083120313A4002408A0003108C2
:101E10000A168A119E230A128A159A3E8400831795
:101E200080010B3083120313A4002408A0003108A2
:101E30000A168A119E23983E840083178001840A23
:101E40008001080083160313E90069080A128A1545
:101E5000B5240A128A15831203136E080A168A1112
:101E600059250A128A15831203136F080A168A115C
:101E7000CF240A128A154A2F01300A168A113C25EE
:101E80000A128A155E2F01300A168A111F250A12BE
:101E90008A155E2F831203136E0883160313DF0067
:101EA000E0016008003A0319562F5E2F5F08003AE0
:101EB00003193C2F013A0319432F5E2FFF300A16F6
:101EC0008A112A230A128A158316031354088312CF
:101ED0000313A00083160313550883120313A100F4
:101EE000A201A30100300A128A15BC250A128A1524
:101EF000831203132308B5002208B4002108B3009D
:101F00002008B2004030B1000030B0000030AF0017
:101F10000030AE000A128A11C5240A128A158312F3
:101F20000313310883160313E400831203133008EC
:101F300083160313E300831203132F08831603137E
:101F4000E200831203132E0883160313E1006408D2
:101F500083120313E9008316031363088312031328
:101F6000E80083160313620883120313E700831645
:101F70000313610883120313E6000A128A15132261
:101F80000A128A1583120313690883160313E800E3
:101F900083120313680883160313E70083120313E5
:101FA000670883160313E60083120313660883167B
:101FB0000313E500680883120313CB008316031391
:101FC000670883120313CA0083160313660883127B
:101FD0000313C90083160313650883120313C80093
:101FE0000A128A15782283120313490883160313F1
:101FF000D30083120313480883160313D20008008A
:10264400F1007108F0007008831203138100080080
:1026540083120313A1002108A000200881000800B0
:1026640064008001840A0406031900340406332B31
:1026740083120313A1007B08A00021088400200812
:1026840080000800831203132608A80028088E007F
:102694002708A80028088F0008003F3406345B345C
:1026A4004F3466346D347D3407347F346F340034F2
:1026B40083120313A5000B30A4002408A0002508EE
:1026C4000A168A119E239A3E840083170008080084
:1026D40000300A128A1561260A168A1101300A127C
:1026E4008A1561260A168A1102300A128A15612691
:1026F40008007E088A007F0882007B230A168A115C
:102704008000840A04087D0603190034FF0A0319B3
:10271400FE0A7F2B83120313A1002108A0002007C7
:10272400B43E84008313000883160313CE00840A86
:102734000008CF00FA01080083120313A300A201CA
:10274400231CA82B2008A1002108A2070310A00D18
:102754000310A30C2308031DA22B220808008316D0
:1027640003130708FD3983120313A00020088316FE
:1027740003138700831203130708FD39A000200800
:10278400870008007B080319C92B0130FB027B0872
:1027940083120313A000A1012008A2002108A300B2
:1027A4002208A0002008FB00080083120313EE0196
:1027B400EF0106300A128A1522270A168A1163309D
:1027C4000A168A112A230A168A1100300A168A1157
:1027D4003C25080083120313A7002408A500063033
:1027E400A6002608A00027080A168A119E23C93EBF
:1027F40084008312031325088313800008008312C6
:102804000313A7002408A5000B30A6002608A00087
:1028140027080A168A119E23BA3E840083120313E2
:10282400250883178000080083120313A6000B30C9
:10283400A4002408A00026080A168A119E23973EA5
:1028440084008317000883120313A5002508A7003A
:102854002708080001300A168A1116240A168A115C
:10286400013A031D080002300A168A1116240A16BA
:102874008A11003A031D08000A168A11C4230800AD
:1028840000300A168A1116240A168A11013A031D09
:10289400080002300A168A1116240A168A11003A10
:1028A400031D08000A168A11B42508008834003470
:1028B40008340034863400340634003404340034DC
:1028C4000A3488340034083400348634003406343E
:1028D4000034053400340A3400300A128A116826A0
:1028E4000A168A1101300A128A1168260A168A11F8
:1028F40002300A128A1168260A168A1100300A1256
:102904008A15BF2308000A168A1104250A168A119B
:102914000A128A15B4210A168A110A128A1152203F
:102924000A168A110A128A1523200A168A110A1213
:102934008A116A270800831203130708FB39043835
:10294400F300730887004230F300F30BA72C000058
:10295400831203130708FB39F3007308870001305F
:102964000A168A11E924080083120313A200BE2C5C
:1029740010140800101008002208A000A10121086A
:10298400003A0319C62CCE2C2008003A0319BA2C9D
:10299400013A0319BC2CCE2C080083120313A200A5
:1029A400D82C8B178B1608008B1208002208A00065
:1029B400A1012108003A0319E02CE82C2008003A70
:1029C4000319D32C013A0319D62CE82C0800F20081
:1029D400F32C831203131014080083120313101032
:1029E40008007208F000F1017108003A0319FB2C89
:1029F400032D7008003A0319EB2C013A0319EF2C4C
:102A0400032D08000A3083120313A9002908831632
:102A14000313D8070A305806031D0800D8010A1604
:102A24008A1185270A168A110A168A11E5260A16BA
:102A34008A110A168A116226080083120313A2005F
:102A44002B2D83160313811608008316031381129A
:102A540008002208A000A1012108003A0319332D1F
:102A64003B2D2008003A0319232D013A0319272D81
:102A74003B2D080083120313A200482D8316031371
:102A84008112080083160313811608002208A0008F
:102A9400A1012108003A0319502D582D2008003AAD
:102AA4000319402D013A0319442D582D08008312AF
:102AB4000313A200652D83160313811208008316E5
:102AC4000313811608002208A000A1012108003A7E
:102AD40003196D2D752D2008003A03195D2D013A57
:102AE4000319612D752D080083120313A90024080E
:102AF400A5000B30A6002608A00029080A168A1192
:102B04009E23B33E84008317000883120313A70097
:102B1400840A0008A800270884008317281C83134C
:102B24002508800008000A3083120313B20032081B
:102B340083160313D90714305902031C08008312A7
:102B44000313B30133080A128A1539240A168A11A9
:102B5400013083120313B2003208B3073308031D94
:102B64000800A42D02307B02031CC12D7B088312B4
:102B74000313A000A1012008A3002108CD2D0130DA
:102B840083120313A0002008FB077B08A100A20105
:102B94002108A3002208A4002308A0002008FB00A9
:102BA4000800803083120313E1066508A30064085B
:102BB400A2006308A1006208A0006108A7006008E1
:102BC400A6005F08A5005E08A4000A128A119622D6
:102BD400831203132308E1002208E0002108DF0028
:102BE4002008DE000800831603130708FB3983124C
:102BF4000313A00020088316031387008312031312
:102C04000708FB39A00020088700831603133B083C
:102C1400CF003A08CE003B08D1003A08D000FA01B0
:102C2400FA0A3730CC000030CD0008008834003474
:102C34000834003486340034063400340634003456
:102C44000A34083400340034083448340034083476
:102C5400483449348C3400345A3400340A3400344F
:102C6400AA34003486340034063400340334003487
:102C7400013402340030831603179100863090002B
:102C84000030930006309200940100309C0086309E
:102C94009B0000309E0006309D009F019F0A00307B
:102CA400A7008630A6000030A9000630A800023034
:102CB40083120313A000200883160317AA00080038
:102CC4000A3083120313A000200883160313D607C7
:102CD40014305602031C0800D6017A0803190800B0
:102CE4004208031D802E4E08053ED0004F080318ED
:102CF400013E003ED100C201C20A08004203031D86
:102D040008004E08FB3ED0004F080318013EFF3E6A
:102D1400D100C201080020308400831603133C084C
:102D240083138000840A3D088000840A3E088000E2
:102D3400840A3F088000840A40088000840A41080D
:102D44008000C43084008312031320088000840AA6
:102D540021088000840A22088000840A2308800055
:102D6400840A24088000840A2508800008000A16C2
:102D74008A116A230A168A110A128A11F9270A1675
:102D84008A110A168A116E240A168A110A168A11E1
:102D9400F5250A168A110A168A11B1230A168A1110
:102DA4000A168A11D7230A168A11831603135E089A
:102DB4000319D72E0A168A1185240A168A11831636
:102DC4000313DE01D72E0A3083120313A000200858
:102DD40083160313D70750305706031D0800D70185
:102DE4007A08031D042F4F085102031DFB2E4E08C1
:102DF40050020318042F0130D0070318D10A003001
:102E0400D10708007A08031D162F51084F02031D2D
:102E14000D2F50084E020318162F0130D002003037
:102E2400031CD103D1020800FA01FA0A0800831234
:102E34000313200821040319482FA501A50AA11B87
:102E44002F2F01300310A00DA10DFF3E031D242FD1
:102E54000130A4002408A507212F21082302031D03
:102E6400352F20082202031C3D2F2008A20221082E
:102E7400031CA303A30201300310A10CA00CFF3E0A
:102E8400031D3E2F0130A502031D2F2F2308A1008F
:102E94002208A000080002300A168A115A230A16D2
:102EA4008A111E3A031D6A2F023083160313430648
:102EB4000319622F6A2F831603134303031D732F11
:102EC4000A168A11C423013083160313C3020800AF
:102ED40002300A168A115A230A168A113C3A031937
:102EE4005D2F02300A168A1116240A168A11003A36
:102EF400031D0800023083120313A8002808831658
:102F04000313C300080001300A168A11B6240A16F6
:102F14008A1183120313A001A10101300A128A1538
:102F240059210A168A1183160313510883120313B5
:102F3400A10083160313500883120313A000831601
:102F440003134D0883120313A300831603134C08C1
:102F540083120313A2000A128A1500200A168A118A
:102F6400831203132009A6002109A7000A168A1157
:102F740044230A168A1100300A168A11B62408005E
:102F84000B1DEB2F831203130708F4000130031009
:102F9400F40CFF3E031DC92F7418D22F0130D32F18
:102FA4000030F50001300310F50DFF3E031DD52F51
:102FB4000708FD397504F6007608870063300A16A1
:102FC4008A1122230A168A110B1183160313DE01B8
:102FD400DE0A831203130C1CF72F0A168A119D2490
:102FE4000A168A11831203130C1079088A007808D0
:0C2FF4008400770E8300FE0E7E0E0900A4
:02400E00723FFF
:00000001FF
